:020000040800F2
:100000000000052071070108C5C40008C7C4000826
:10001000C9C40008CBC40008CDC40008000000001B
:10002000000000000000000000000000CFC4000835
:10003000D1C4000800000000D3C40008D5C40008E3
:10004000C1070108C1070108C1070108C10701086C
:10005000C1070108E1C40008C1070108C107010880
:10006000C1070108C1070108C1070108C10701084C
:10007000C1070108C1070108C1070108C10701083C
:10008000C1070108C1070108E5C40008C10701084C
:10009000C1070108C1070108C1070108C10701081C
:1000A000C1070108C1070108C1070108C10701080C
:1000B000C1070108F5C40008C1070108C10701080C
:1000C000C1070108C1070108C1070108C1070108EC
:1000D00005C50008C1070108C1070108C1070108DB
:1000E000C1070108C1070108C1070108C1070108CC
:1000F000C1070108C1070108C1070108C1070108BC
:10010000C107010815C50008C1070108C10701089A
:10011000C1070108C1070108C1070108C10701089B
:1001200025C50008C1070108C1070108C10701086A
:10013000C1070108C1070108C1070108C10701087B
:10014000C1070108C1070108C107010835C500083A
:10015000C1070108C1070108C1070108C10701085B
:10016000C1070108C1070108C1070108C10701084B
:10017000C1070108C1070108C1070108000000000C
:1001800045C50008C1070108C1070108C1070108EA
:10019000C1070108C1070108C1070108C10701081B
:1001A000C1070108C1070108C1070108C10701080B
:1001B000C1070108C1070108C1070108C1070108FB
:0801C000C1070108C107010895
:1001D00010B5054C237833B9044B13B10448AFF381
:1001E00000800123237010BD0408002000000000DF
:1001F00060C9020808B5034B1BB103490348AFF3BC
:10020000008008BD000000000808002060C9020846
:1002100081F0004102E000BF83F0004330B54FEAB7
:1002200041044FEA430594EA050F08BF90EA020F24
:100230001FBF54EA000C55EA020C7FEA645C7FEAB7
:10024000655C00F0E2804FEA5454D4EB5555B8BFDA
:100250006D420CDD2C4480EA020281EA030382EA4B
:10026000000083EA010180EA020281EA0303362DDD
:1002700088BF30BD11F0004F4FEA01314FF4801CB0
:100280004CEA113102D0404261EB410113F0004FC2
:100290004FEA03334CEA133302D0524263EB430379
:1002A00094EA050F00F0A780A4F10104D5F1200E17
:1002B0000DDB02FA0EFC22FA05F2801841F1000172
:1002C00003FA0EF2801843FA05F359410EE0A5F146
:1002D00020050EF1200E012A03FA0EFC28BF4CF077
:1002E000020C43FA05F3C01851EBE37101F000452D
:1002F00007D54FF0000EDCF1000C7EEB00006EEB3A
:100300000101B1F5801F1BD3B1F5001F0CD34908C3
:100310005FEA30004FEA3C0C04F101044FEA44521A
:1003200012F5800F80F09A80BCF1004F08BF5FEAA1
:10033000500C50F1000041EB045141EA050130BD81
:100340005FEA4C0C404141EB010111F4801FA4F124
:100350000104E9D191F0000F04BF01460020B1FA79
:1003600081F308BF2033A3F10B03B3F120020CDAB1
:100370000C3208DD02F1140CC2F10C0201FA0CF08F
:1003800021FA02F10CE002F11402D8BFC2F1200CF4
:1003900001FA02F120FA0CFCDCBF41EA0C019040AA
:1003A000E41AA2BF01EB0451294330BD6FEA0404F3
:1003B0001F3C1CDA0C340EDC04F11404C4F12002DE
:1003C00020FA04F001FA02F340EA030021FA04F3F0
:1003D00045EA030130BDC4F10C04C4F1200220FA47
:1003E00002F001FA04F340EA0300294630BD21FA85
:1003F00004F0294630BD94F0000F83F4801306BF4B
:1004000081F480110134013D4EE77FEA645C18BF3E
:100410007FEA655C29D094EA050F08BF90EA020FD5
:1004200005D054EA000C04BF1946104630BD91EACD
:10043000030F1EBF0021002030BD5FEA545C05D1D0
:100440004000494128BF41F0004130BD14F580040F
:100450003CBF01F5801130BD01F0004545F0FE4183
:1004600041F470014FF0000030BD7FEA645C1ABFB8
:10047000194610467FEA655C1CBF0B46024650EAEF
:10048000013406BF52EA033591EA030F41F400211B
:1004900030BD00BF90F0000F04BF0021704730B5A1
:1004A0004FF4806404F132044FF000054FF0000176
:1004B00050E700BF90F0000F04BF0021704730B537
:1004C0004FF4806404F1320410F0004548BF40420C
:1004D0004FF000013EE700BF42004FEAE2014FEA61
:1004E00031014FEA02701FBF12F07F4393F07F4F3C
:1004F00081F06051704732F07F4208BF704793F03F
:100500007F4F04BF41F40021704730B54FF4607451
:1005100001F0004521F000411CE700BF50EA010254
:1005200008BF704730B54FF000050AE050EA0102FD
:1005300008BF704730B511F0004502D5404261EB6D
:1005400041014FF4806404F132045FEA915C3FF4AE
:10055000D8AE4FF003025FEADC0C18BF03325FEA4B
:10056000DC0C18BF033202EBDC02C2F1200300FAFC
:1005700003FC20FA02F001FA03FE40EA0E0021FA21
:1005800002F11444BDE600BF70B54FF0FF0C4CF40F
:10059000E06C1CEA11541DBF1CEA135594EA0C0FC1
:1005A00095EA0C0F00F0DEF82C4481EA030621EAFC
:1005B0004C5123EA4C5350EA013518BF52EA033537
:1005C00041F4801143F4801338D0A0FB02CE4FF0E9
:1005D0000005E1FB02E506F00042E0FB03E54FF019
:1005E0000006E1FB03569CF0000F18BF4EF0010E11
:1005F000A4F1FF04B6F5007F64F5407404D25FEA0D
:100600004E0E6D4146EB060642EAC62141EA5551BF
:100610004FEAC52040EA5E504FEACE2EB4F1FD0C01
:1006200088BFBCF5E06F1ED8BEF1004F08BF5FEA7F
:10063000500E50F1000041EB045170BD06F0004631
:1006400046EA010140EA020081EA0301B4EB5C04DE
:10065000C2BFD4EB0C0541EA045170BD41F48011D6
:100660004FF0000E013C00F3AB8014F1360FDEBFFB
:10067000002001F0004170BDC4F10004203C35DAD7
:100680000C341BDC04F11404C4F1200500FA05F35A
:1006900020FA04F001FA05F240EA020001F00042FB
:1006A00021F0004110EBD37021FA04F642EB060171
:1006B0005EEA430E08BF20EAD37070BDC4F10C049B
:1006C000C4F1200500FA04F320FA05F001FA04F25F
:1006D00040EA020001F0004110EBD37041F100014B
:1006E0005EEA430E08BF20EAD37070BDC4F1200556
:1006F00000FA05F24EEA020E20FA04F301FA05F2BE
:1007000043EA020321FA04F001F0004121FA04F265
:1007100020EA020000EBD3705EEA430E08BF20EA35
:10072000D37070BD94F0000F0FD101F0004640006F
:1007300041EB010111F4801F08BF013CF7D041EAF1
:10074000060195F0000F18BF704703F000465200F5
:1007500043EB030313F4801F08BF013DF7D043EAC6
:100760000603704794EA0C0F0CEA135518BF95EA7C
:100770000C0F0CD050EA410618BF52EA4306D1D103
:1007800081EA030101F000414FF0000070BD50EA22
:10079000410606BF1046194652EA430619D094EAAC
:1007A0000C0F02D150EA013613D195EA0C0F05D196
:1007B00052EA03361CBF104619460AD181EA0301EA
:1007C00001F0004141F0FE4141F470014FF00000A2
:1007D00070BD41F0FE4141F4780170BD70B54FF03D
:1007E000FF0C4CF4E06C1CEA11541DBF1CEA1355BD
:1007F00094EA0C0F95EA0C0F00F0A7F8A4EB05049F
:1008000081EA030E52EA03354FEA013100F0888095
:100810004FEA03334FF0805545EA131343EA12635E
:100820004FEA022245EA111545EA10654FEA002613
:100830000EF000419D4208BF964244F1FD0404F5CC
:10084000407402D25B084FEA3202B61A65EB030528
:100850005B084FEA32024FF480104FF4002CB6EBE5
:10086000020E75EB030E22BFB61A754640EA0C0065
:100870005B084FEA3202B6EB020E75EB030E22BFA5
:10088000B61A754640EA5C005B084FEA3202B6EBE6
:10089000020E75EB030E22BFB61A754640EA9C00A5
:1008A0005B084FEA3202B6EB020E75EB030E22BF75
:1008B000B61A754640EADC0055EA060E18D04FEA33
:1008C000051545EA16754FEA06164FEAC30343EAD3
:1008D00052734FEAC2025FEA1C1CC0D111F4801FA0
:1008E0000BD141EA00014FF000004FF0004CB6E799
:1008F00011F4801F04BF01430020B4F1FD0C88BF38
:10090000BCF5E06F3FF6AFAEB5EB030C04BFB6EB42
:10091000020C5FEA500C50F1000041EB045170BD35
:100920000EF0004E4EEA113114EB5C04C2BFD4EB62
:100930000C0541EA045170BD41F480114FF0000EE6
:10094000013C90E645EA060E8DE60CEA135594EA62
:100950000C0F08BF95EA0C0F3FF43BAF94EA0C0F65
:100960000AD150EA01347FF434AF95EA0C0F7FF4DA
:1009700025AF104619462CE795EA0C0F06D152EA2E
:1009800003353FF4FDAE1046194622E750EA410612
:1009900018BF52EA43067FF4C5AE50EA41047FF423
:1009A0000DAF52EA43057FF4EBAE12E74FF0FF3C88
:1009B00006E000BF4FF0010C02E000BF4FF0010C59
:1009C0004DF804CD4FEA410C7FEA6C5C4FEA430CD2
:1009D00018BF7FEA6C5C1BD001B050EA410C0CBF21
:1009E00052EA430C91EA030F02BF90EA020F002083
:1009F000704710F1000F91EA030F58BF994208BFEA
:100A000090422CBFD8176FEAE37040F001007047A6
:100A10004FEA410C7FEA6C5C02D150EA013C07D1FD
:100A20004FEA430C7FEA6C5CD6D152EA033CD3D048
:100A30005DF8040B704700BF8446104662468C4642
:100A40001946634600E000BF01B5FFF7B7FF002875
:100A500048BF10F1000F01BD4DF808EDFFF7F4FF9E
:100A60000CBF012000205DF808FB00BF4DF808ED29
:100A7000FFF7EAFF34BF012000205DF808FB00BF4C
:100A80004DF808EDFFF7E0FF94BF012000205DF86E
:100A900008FB00BF4DF808EDFFF7CEFF94BF012023
:100AA00000205DF808FB00BF4DF808EDFFF7C4FF1C
:100AB00034BF012000205DF808FB00BF4FEA41026F
:100AC00012F5001215D211D56FF47873B3EB6252A0
:100AD00012D94FEAC12343F0004343EA505311F0C7
:100AE000004F23FA02F018BF404270474FF0000059
:100AF000704750EA013005D111F0004008BF6FF097
:100B0000004070474FF00000704700BF4FEA4102BD
:100B1000B2F1E04324BFB3F5001CDCF1FE5C0DD95B
:100B200001F0004C4FEAC0024CEA5070B2F1004FA5
:100B300040EB830008BF20F00100704711F0804FA8
:100B400021D113F13872BCBF01F00040704741F46D
:100B500080114FEA5252C2F11802C2F1200C10FA71
:100B60000CF320FA02F018BF40F001004FEAC12355
:100B70004FEAD32303FA0CFC40EA0C0023FA02F3F9
:100B80004FEA4303CCE77FEA625307D150EA0133CF
:100B90001EBF4FF0FE4040F44000704701F000409F
:100BA00040F0FE4040F40000704700BF53B94AB91E
:100BB000002908BF00281CBF4FF0FF314FF0FF3065
:100BC00000F072B9ADF1080C6DE904CE00F006F842
:100BD000DDF804E0DDE9022304B070472DE9F047B9
:100BE000089E04468846002B4BD18A42154667D999
:100BF000B2FA82F24AB1C2F1200701FA02F320FAF6
:100C000007F7954047EA030894404FEA154E230C36
:100C1000B8FBFEF71FFA85FC0EFB178843EA084372
:100C200007FB0CF1994209D9EB1807F1FF3080F06E
:100C30001B81994240F21881023F2B445B1AA4B2F7
:100C4000B3FBFEF00EFB103344EA034400FB0CFC44
:100C5000A44509D92C1900F1FF3380F00781A44580
:100C600040F2048102382C4440EA0740A4EB0C0413
:100C700000271EB1D4400023C6E900433946BDE831
:100C8000F0878B4209D9002E00F0EB800027C6E9DF
:100C9000000138463946BDE8F087B3FA83F7002FE4
:100CA00047D18B4202D3824200F2FA80841A61EB70
:100CB000030301209846002EE0D0C6E90048DDE796
:100CC00002B9FFDEB2FA82F2002A40F08F80491B9F
:100CD0004FEA154E1FFA85F80127B1FBFEFC230CE5
:100CE0000EFB1C1143EA014308FB0CF1994207D9A2
:100CF000EB180CF1FF3002D2994200F2CD8084460D
:100D0000591AA3B2B1FBFEF00EFB101443EA0444DF
:100D100008FB00F8A04507D92C1900F1FF3302D2D7
:100D2000A04500F2B6801846A4EB080440EA0C4047
:100D30009FE7C7F1200CBB4022FA0CFE4EEA030EDF
:100D400001FA07F420FA0CF521FA0CF34FEA1E48D9
:100D50002543B3FBF8F92C0C08FB19331FFA8EFA64
:100D600044EA034309FB0AF49C4202FA07F200FA40
:100D700007F10BD91EEB030309F1FF3080F08780E8
:100D80009C4240F28480A9F1020973441B1BADB25E
:100D9000B3FBF8F008FB103345EA034400FB0AFA02
:100DA000A24508D91EEB040400F1FF336BD2A24523
:100DB00069D90238744440EA0940A0FB0289A4EBD7
:100DC0000A044C45C2464B4654D351D0002E69D03C
:100DD000B1EB0A0564EB030404FA0CFCFD40FC4093
:100DE0004CEA0505C6E90054002747E7C2F1200395
:100DF00020FA03F7954001FA02F021FA03F34FEAD3
:100E0000154E3843010CB3FBFEF71FFA85F80EFBB5
:100E1000173341EA034107FB08F38B4204FA02F45B
:100E200007D9691807F1FF3C2FD28B422DD9023F19
:100E30002944CB1A81B2B3FBFEF00EFB103341EA1A
:100E4000034100FB08F38B4207D9691800F1FF3C0E
:100E500017D28B4215D902382944C91A40EA0747EC
:100E60003BE73746304609E70746E7E61846FBE624
:100E70004145ABD2B8EB020A69EB0E0201381346CA
:100E8000A4E76046E9E7184695E76746D1E781465B
:100E90007CE702382C4447E7ACF1020C2B442FE7E7
:100EA000384608E73746E9E6704700BF034613F8BF
:100EB000012B002AFBD1181A0138704700000000EE
:100EC00001F0FF01102A2BDB10F0070F08D010F8FB
:100ED000013B013A8B422DD010F0070F42B3F6D1FF
:100EE000F0B441EA012141EA014122F007047FF018
:100EF00000070023F0E80256083C85EA010586EA6F
:100F0000010685FA47F5A3FA87F586FA47F6A5FAAA
:100F100087F68EB9EED1F0BC01F0FF0102F00702B6
:100F200032B110F8013B013A83EA010313B1F8D161
:100F30000020704701387047002D06BF3546033842
:100F4000073815F0010F07D1013015F4807F02BF7B
:100F5000013015F4C03F0130F0BC0138704700BFCC
:100F600010B504460E4B18784FF47A73B3FBF0F3C8
:100F70000C4A1068B0FBF3F000F048FC68B90F2C85
:100F800001D901200AE0002221464FF0FF3000F095
:100F9000FFFB034B5C60002000E0012010BD00BFA0
:100FA000000000206001002008B5094B1A6842F4D7
:100FB00000721A601A6842F480721A60032000F00E
:100FC000D5FB0020FFF7CCFF0BF0B0F8002008BDE8
:100FD000003C0240034A1168034B1B780B4413602A
:100FE000704700BFD03D042000000020014B18686E
:100FF000704700BFD03D042038B50446FFF7F6FF28
:101000000546B4F1FF3F02D0044B1B781C44FFF7A8
:10101000EDFF401BA042FAD338BD00BF0000002006
:10102000494B5A6822F440325A605A6841680A4370
:101030005A600268536823F48073536002685368EF
:10104000016943EA012353600268536823F0407347
:1010500053600268536881680B4353600268936869
:1010600023F40063936002689368C1680B43936044
:10107000826A364B9A4249D00268936823F07063C3
:10108000936002689368816A0B4393600268936877
:1010900023F04053936002689368C16A0B439360E6
:1010A0000268936823F00203936002689368816981
:1010B00043EA41039360036A002B32D1026853680C
:1010C00023F4006353600268D36A23F47003D3628D
:1010D0000168CB6AC269013A43EA0253CB620268F3
:1010E000936823F40073936002689368016B43EA8A
:1010F000412393600268936823F4806393600268DD
:101100009368416943EA812393607047026893685A
:1011100023F0706393600268936823F040539360F8
:10112000BEE70268536843F4006353600268536883
:1011300023F46043536001684B68426A013A43EA12
:1011400042334B60BFE700BF002301400100000FA6
:1011500020B310B50446036C43B1236C13F0100F99
:101160000AD00120002384F83C3010BD436480F88D
:101170003C300BF02BF8F0E7226C094B134043F0A6
:10118000020323642046FFF74BFF00206064236CBA
:1011900023F0030343F001032364E3E701207047D6
:1011A000FDEEFFFF82B00023019390F83C30012B4D
:1011B00066D0012380F83C3003689A6812F0010F72
:1011C00013D19A6842F001029A60324B1B68324A8E
:1011D000A2FB03239B0C03EB4303019302E0019B5F
:1011E000013B0193019B002BF9D10268936813F036
:1011F000010F47D0016C294B0B4043F4807303640B
:10120000536813F4806F05D0036C23F4405343F408
:1012100080530364036C13F4805F1ED0436C23F08F
:1012200006034364002380F83C306FF02203136010
:10123000026851681A4B0B4353601A4B5B6813F0FA
:101240001F0F0DD103689A6812F0405F1DD19A6894
:1012500042F080429A60002015E000234364E1E7F9
:101260000368114A934201D000200CE09A6812F002
:10127000405F0CD19A6842F080429A60002002E000
:10128000022000E0002002B070470020FBE70020B1
:10129000F9E700BF6001002083DE1B43FEF8FFFF7B
:1012A00020000004002301400020014030B583B03D
:1012B0000023019390F83C30012B7ED0012380F86D
:1012C0003C300468A36813F0010F13D1A36843F006
:1012D0000103A3603D4B1C683D4BA3FB0434A40CED
:1012E00004EB4404019402E0019C013C0194019C44
:1012F000002CF9D103689C6814F0010F5FD0056CD5
:10130000344C2C4044F4807404645B6813F4806FA4
:1013100005D0036C23F4405343F480530364036CFF
:1013200013F4805F36D0436C23F006034364134606
:101330000446002280F83C20826B2748D063A26BD1
:1013400026481064A26B2648D06422686FF0220001
:1013500010602568686840F0806068602568A8684B
:1013600040F48070A86020680A4600F14C01A06B30
:1013700000F0C2FB1B4B5B6813F01F0F0DD12368FD
:101380009A6812F0405F1DD19A6842F080429A60DC
:10139000002015E000234364C9E72368124A934202
:1013A00001D000200CE09A6812F0405F0CD19A68DE
:1013B00042F080429A60002002E0022000E000201B
:1013C00003B030BD0020FBE70020F9E760010020FA
:1013D00083DE1B43FEF8FFFFEF13000851140008E3
:1013E000A71500080023014000200140704708B500
:1013F000836B1A6C12F0500F03D09B6BDB6C984719
:1014000008BD1A6C42F400721A641A68916811F0EF
:10141000405F19D19969B9B9D16A11F4700F03D03D
:10142000916811F4806F0FD1516821F02001516053
:101430001A6C22F480721A641A6C12F4805F03D161
:101440001A6C42F001021A641846FFF7CFFFD7E783
:1014500008B5806B09F030F808BD7047704738B5A3
:10146000044601680A68C2F340024B68C3F34013A4
:101470001A422CD0036C13F0100F03D1036C43F409
:10148000007303648B6813F0405F19D1A369BBB983
:10149000CB6A13F4700F03D08B6813F4806F0FD1F5
:1014A0004B6823F020034B60236C23F48073236488
:1014B000236C13F4805F03D1236C43F00103236496
:1014C0002046FFF793FF23686FF012021A6023682B
:1014D0001968C1F380015A68C2F3C012114234D0B6
:1014E000226C12F0100F03D1226C42F400522264DD
:1014F0009A6812F4401F21D19A6B12F4401F03D056
:101500009A6812F4806F19D15A6812F4806F15D15D
:101510009A6812F0405F11D1A2697AB95A6822F034
:1015200080025A60236C23F480532364236C13F4E9
:10153000807F03D1236C43F001032364204600F035
:1015400013F923686FF00C021A602268116853685F
:10155000C3F38013194203D0136813F0010F09D1AC
:1015600021680A68C2F340124B68C3F380631A42D1
:101570000CD138BD236C43F4803323642046FFF73D
:101580006CFF23686FF001021A60E9E7636C43F0B7
:10159000020363646FF020050D602046FFF75EFFD5
:1015A00023681D60E5E708B5806B40230364436C46
:1015B00043F004034364FFF751FF08BD30B482B029
:1015C0000023019390F83C30012B00F0C0800123F0
:1015D00080F83C300B68092B22D90568EA689BB279
:1015E00003EB43031E3B072404FA03F322EA03033D
:1015F000EB600B68574A93420BD00568EA688C6829
:101600009BB203EB43031E3B04FA03F31343EB606B
:101610001BE00268D3688C6843EA0463D36014E07B
:1016200005682A699BB203EB4303072404FA03F31A
:1016300022EA03032B6105682A698C680B8803EB97
:10164000430304FA03F313432B614B68062B24D89E
:1016500005686A6B03EB8303053B1F2404FA03F35D
:1016600022EA03036B6305686A6B4B6803EB830331
:10167000053B0C8804FA03F313436B630268364B93
:101680009A423AD00268344B9A423FD0002380F805
:101690003C30184602B030BC70470C2B16D8056899
:1016A0002A6B03EB8303233B1F2404FA03F322EA90
:1016B00003032B6305682A6B4B6803EB8303233B0F
:1016C0000C8804FA03F313432B63D7E70568EA6A2F
:1016D00003EB8303413B1F2404FA03F322EA0303D1
:1016E000EB620568EA6A4B6803EB8303413B0C88B5
:1016F00004FA03F31343EB62C0E70B68122BC1D16A
:10170000164A536843F480035360BBE70B68114AE1
:10171000112B18BF9342B9D1104A536843F4000308
:1017200053600A680B4B9A42B0D10D4B1B680D4AAF
:10173000A2FB03239B0C03EB83035A00019202E0FC
:10174000019B013B0193019B002BF9D19EE70220F5
:10175000A0E700BF1200001000200140002301405C
:101760006001002083DE1B43704700000649CB6800
:1017700023F4E0631B041B0C000200F4E06003434D
:10178000024A1A43CA60704700ED00E00000FA0503
:1017900030B4154BDB68C3F30223C3F10704042CF8
:1017A00028BF04241D1D062D14D9033B4FF0FF351F
:1017B00005FA04F421EA0401994005FA03F322EA48
:1017C00003031943002807DB0901C9B2074B195469
:1017D00030BC70470023E9E700F00F000901C9B2EF
:1017E000034B1954F4E700BF00ED00E000E400E013
:1017F00014ED00E000F01F02400901239340024A6B
:1018000042F82030704700BF00E100E00138B0F13D
:10181000807F0AD2064B5860064AF02182F82310D6
:101820000020986007221A6070470120704700BFAF
:1018300010E000E000ED00E0042805D0054A136840
:1018400023F0040313607047024A136843F0040353
:101850001360704710E000E008B508F025FE08BDF1
:10186000002838D010B50446437F1BB302236377AA
:1018700023791BBB2368194A5A612268936823F0B5
:1018800018039360637913BB23684FF0FF321A612A
:101890002268936823F0600361690B4393602268B8
:1018A000936823F08003A1690B439360012363775E
:1018B000002010BD03770AF0DDFCD7E7E268A168DD
:1018C000204600F00DF80028DCD00120F1E7236865
:1018D00022691A61DCE70120704700BFB71DC1040F
:1018E00010B41F2300E0234621FA03F414F0010F83
:1018F00003D15C1E002BF6D12346102A13D0182AE0
:101900000DD0082A13D00368596101688B6823F051
:1019100018031A438A6000205DF8044B7047062BB9
:10192000F1D90120F8E7072BEDD90120F4E70F2BBF
:10193000E9D90120F0E730B405682C6824F480244C
:101940002C60046863608368402B05D0036899604D
:101950000368DA6030BC704703689A600368D96036
:10196000F8E700000268D3B2103B0949A1FB03135A
:101970001B090849C95CC165032B04D8064B1340F9
:101980008365806D7047044B134004338365F8E72B
:10199000ABAAAAAA78C9020800FCFFFF836A826981
:1019A00092B9012B0AD01BB1022B01D00020704745
:1019B000C36A13F0807F2CD100207047C36AB3F153
:1019C000C07F28D000207047B2F5005F05D0022B01
:1019D00029D9032B15D000207047032B03D8DFE84B
:1019E00003F01C041C0A00207047C36A13F0807FB8
:1019F00015D100207047C36AB3F1C07F11D0002019
:101A00007047C36A13F0807F01D001207047002027
:101A10007047012070470120704701207047012066
:101A200070470120704701207047000070B50446E0
:101A3000FFF7DCFA002C5BD00546002384F8343035
:101A4000022384F835302268136823F00103136001
:101A500023681A6812F0010F0AD0FFF7C7FA401B7B
:101A60000528F5D920236365032084F8350070BD6F
:101A70001A68204810406168A2680A43E1680A4376
:101A800021690A4361690A43A1690A43E1690A437A
:101A9000216A0A430243616A04291ED01A6026683B
:101AA000756925F00705636A1D43042B07D1A36AF6
:101AB0001D43E36A1BB12046FFF770FF90B97561C3
:101AC0002046FFF74FFFE26D3F23934083600020E5
:101AD0006065012384F83530C9E7E16A206B014372
:101AE0000A43DBE740236365012084F83500BEE745
:101AF0000120BCE73F8010F038B5856D90F8344088
:101B0000012C31D0012480F8344090F83540E4B203
:101B1000012C04D0002380F83430022038BD044664
:101B2000022084F83500002060652046FFF703FF9F
:101B3000E26D3F239340AB602268136843F01603C5
:101B400013602268536943F080035361236C23B10F
:101B50002268136843F0080313602268136843F097
:101B6000010313600020D9E70220D7E790F8353051
:101B7000DBB2022B03D0802343650120704705238D
:101B800080F835300268136823F0010313600020E9
:101B900070470000F0B583B0044600230193724BF8
:101BA0001D68724BA3FB0535AD0A876D3E68C26D9B
:101BB00008239340334210D003681A6812F0040FD0
:101BC0000BD01A6822F004021A60C26D08239340F9
:101BD000BB60436D43F001034365E26D0123934015
:101BE000334209D02268526912F0800F04D0BB60E2
:101BF000636D43F002036365E26D04239340334257
:101C000009D02268126812F0020F04D0BB60636D25
:101C100043F004036365E26D10239340334224D004
:101C20002268126812F0080F1FD0BB6023681A6880
:101C300012F4802F0DD01B6813F4002F04D1236CF5
:101C40009BB12046984710E0A36C73B1204698479B
:101C50000BE01A6812F4807F03D11A6822F00802A0
:101C60001A60236C0BB120469847E26D2023934005
:101C7000334255D02268126812F0100F50D0BB606A
:101C800094F83530DBB2052B0ED023681A6812F4B5
:101C9000802F33D01B6813F4002F2AD1636C002BE4
:101CA0003ED0204698473BE02268136823F0160395
:101CB00013602268536923F080035361236CA3B13E
:101CC0002268136823F008031360E26D3F239340FA
:101CD000BB60002384F83430012384F83530236D51
:101CE000002B3FD0204698473CE0A36C002BE7D167
:101CF000EBE7E36BA3B12046984711E01A6812F4B2
:101D0000807F09D11A6822F010021A60002384F83B
:101D10003430012384F83530E36B0BB1204698470B
:101D2000636DFBB1636D13F0010F17D0052384F8C9
:101D300035302268136823F001031360019B0133DF
:101D40000193AB4204D823681B6813F0010FF5D14F
:101D5000002384F83430012384F83530E36C0BB170
:101D60002046984703B0F0BD60010020B5814E1BAE
:101D700000230F2B00F2E280F0B482B039E0092298
:101D800000E00022B2403A4302346D4E46F824206F
:101D90006C4A1468EA4302EA04064F6817F4803F6D
:101DA00001D045EA0406674C2660646802EA04062E
:101DB0004F6817F4003F01D045EA0406614C6660A5
:101DC000A46802EA04064F6817F4801F01D045EAB0
:101DD00004065C4CA660E46822404E6816F4001FBE
:101DE00001D045EA0402574CE26001330F2B00F2A8
:101DF000A28001229A400C6804EA0205AA42F4D1AA
:101E00004C68122C18BF022C10D1DE08083650F88E
:101E100026C003F00704A7000F24BC402CEA040CE2
:101E20000C69BC4044EA0C0440F8264004685F009A
:101E30000326BE40F64306EA040C4C6804F0030493
:101E4000BC4044EA0C0404604C6804F1FF3C112CD3
:101E500018BFBCF1010F01D9122C11D1846806EA18
:101E6000040CCC68BC4044EA0C048460446824EA56
:101E7000020C4C68C4F300129A4042EA0C02426021
:101E8000C26816408A68BA403243C2604A6812F09B
:101E9000805FAAD02C4A546C44F480445464526C41
:101EA00002F480420192019A9C08A61C244A52F82E
:101EB000267003F0030296000F22B24027EA0207C1
:101EC000224A90423FF45DAF02F58062904222D0F8
:101ED00002F58062904220D002F5806290421ED0CE
:101EE00002F5806290421CD002F5806290421AD0C6
:101EF00002F58062904218D002F58062904216D0BE
:101F000002F58062904214D002F5806290423FF464
:101F100036AF0A2236E7012234E7022232E70322F3
:101F200030E704222EE705222CE706222AE70722C3
:101F300028E7082226E702B0F0BC7047704700BFD0
:101F400000380140003C01400038024000000240DF
:101F50000369194201D1002070470120704712B96E
:101F60000904816170478161704703689A6912F0C2
:101F7000020F01D000229A6203689A6912F0010FE1
:101F800003D19A6942F001029A61704770B4039ECE
:101F900005686868740D04F4806444F07F7444F448
:101FA000583444F47F7444F0030420EA0400C1F37D
:101FB000090141EA0241194331430143696070BCA0
:101FC000704770B504460D46164603689B6913F0CA
:101FD000100F17D023689A6912F0200F14D1B5F1B1
:101FE000FF3FF7D025B1FFF701F8801BA842F1D9D8
:101FF000202384F84130002384F8423084F84030B4
:1020000003201EE000201CE01022DA612368202556
:10201000DD612046FFF7A9FF2268536823F0FF73B4
:1020200023F48B3323F4FF7323F001035360042361
:10203000636484F84150002384F8423084F84030CF
:10204000012070BD70B504460D46164623689B6995
:1020500013F0020F1CD1324629462046FFF7B1FF8C
:10206000C0B9B5F1FF3FF1D025B1FEF7BFFF801B2E
:10207000A842EBD9636C43F020036364202384F807
:102080004130002384F8423084F84030032000E0DF
:10209000002070BD0120FCE7F8B505460F46164646
:1020A0001C462B689B6937EA03030CBF01230023FE
:1020B000B34213D1B4F1FF3FF3D02CB1FEF796FF3A
:1020C000069BC01AA042ECD9202385F8413000239A
:1020D00085F8423085F84030032000E00020F8BD4C
:1020E00070B505460C4616462B689B6913F0200F09
:1020F00019D1324621462846FFF763FFA8B924B11B
:10210000FEF774FF801BA042EED96B6C43F02003F6
:102110006B64202385F84130002385F8423085F830
:102120004030032070BD0020FCE70120FAE770B5C5
:1021300004460D46164623689B6913F0040F3DD1F3
:10214000324629462046FFF73CFF0146002837D19A
:1021500023689A6912F0200F12D125B1FEF746FFCD
:10216000801BA842E7D9636C43F0200363642023FB
:1021700084F84130002384F840300321084670BDC4
:102180009A6912F0040F02D0228D002AF6D1202283
:10219000DA6121684B6823F0FF7323F48B3323F457
:1021A000FF7323F001034B600023636484F8412034
:1021B00084F8423084F840300121DFE70021DDE778
:1021C0000121DBE7002857D010B5044690F84130D4
:1021D000002B41D0242384F841302268136823F077
:1021E000010313606368226823F07063136122683F
:1021F000936823F400439360E368012B31D0A36814
:10220000226843F404439360E368022B2FD02268D2
:1022100051681A4B0B4353602268D36823F4004380
:10222000D360236962691343A169226843EA0123E9
:10223000D360E369216A22680B4313602268136844
:1022400043F00103136000206064202384F84130D0
:10225000206384F8420010BD80F840300AF020F876
:10226000B8E7A368226843F400439360CCE723688F
:102270004FF400625A60CAE70120704700800002F4
:102280002DE9F04383B090F84150EDB2202D40F09D
:10229000AD8090F84040012C00F0AD809846174684
:1022A0000E4604464FF0010980F84090FEF79EFE6E
:1022B0000546009019234A464FF400412046FFF797
:1022C000EBFE002840F09980212384F84130102350
:1022D00084F84230002363646762A4F82A80636351
:1022E000638D9BB2FF2B0AD9FF222285474B0093B7
:1022F0004FF0807331462046FFF748FE1DE0628DA7
:1023000092B22285414B00934FF00073D2B2314616
:102310002046FFF73BFE10E0636C042B6FD10123D6
:1023200065E0628D92B22285002300934FF0007326
:10233000D2B231462046FFF729FE638D9BB2002BB7
:1023400032D02A460A992046FFF77CFE0028E3D1C6
:10235000636A5A1C626222681B789362638D013B38
:102360009BB26385238D013B9BB22385002BE4D177
:10237000638D9BB2002BE0D000950A9B0022802148
:102380002046FFF789FE00283BD1638D9BB2FF2BCF
:10239000C7D9FF222285002300934FF08073314676
:1023A0002046FFF7F3FDC8E72A460A992046FFF7C3
:1023B00097FE034620B1636C042B24D1012316E061
:1023C00022682021D1612068426822F0FF7222F445
:1023D0008B3222F4FF7222F00102426084F8411035
:1023E000002284F8422084F8402000E002231846AE
:1023F00003B0BDE8F0830223F9E70323F7E70323E3
:10240000F5E70323F3E70323F1E700BF0020008093
:102410002DE9F04383B090F84150EDB2202D40F00B
:10242000AD8090F84040012C00F0AD8098461746F2
:102430000E4604464FF0010980F84090FEF7D6FDA5
:102440000546009019234A464FF400412046FFF705
:1024500023FE002840F09980222384F84130102385
:1024600084F84230002363646762A4F82A806363BF
:10247000638D9BB2FF2B0AD9FF222285474B009325
:102480004FF0807331462046FFF780FD1DE0628DDE
:1024900092B22285414B00934FF00073D2B2314685
:1024A0002046FFF773FD10E0636C042B6FD101230E
:1024B00065E0628D92B22285002300934FF0007395
:1024C000D2B231462046FFF761FD638D9BB2002BEF
:1024D00032D02A460A992046FFF729FE0028E3D188
:1024E00023685A6A636A591C61621A70238D013B22
:1024F0009BB22385628D013A92B26285002BE4D1B2
:10250000638D9BB2002BE0D000950A9B00228021B6
:102510002046FFF7C1FD00283BD1638D9BB2FF2B06
:10252000C7D9FF222285002300934FF080733146E4
:102530002046FFF72BFDC8E72A460A992046FFF7F9
:10254000CFFD034620B1636C042B24D1012316E098
:1025500022682021D1612068426822F0FF7222F4B3
:102560008B3222F4FF7222F00102426084F84110A3
:10257000002284F8422084F8402000E0022318461C
:1025800003B0BDE8F0830223F9E70323F7E7032351
:10259000F5E70323F3E70323F1E700BF00240080FE
:1025A00090F84130DBB2202B24D190F84030012B41
:1025B00022D0012380F84030242380F84130026883
:1025C000136823F0010313600268136823F4805337
:1025D000136002681368194311600268136843F0BE
:1025E00001031360202380F84130002380F840303D
:1025F00018467047022070470220704790F841301B
:10260000DBB2202B22D190F84030012B20D00123C7
:1026100080F84030242380F841300268136823F0AA
:10262000010313600268136823F4706343EA012115
:1026300011600268136843F001031360202380F8DF
:102640004130002380F84030184670470220704720
:10265000022070472DE9F04782B007460D46D0F8BA
:102660000080C146CA00521A930003441A6D596D86
:10267000521A5E6C964200D3164606F1030A4FEAE0
:102680009A0A15E006F1030A4FEA9A0AEB005B1B6F
:102690009C003C44A16C3B7C0093B3B2EAB2404640
:1026A00004F0ACF8A36C3344A364636D33446365F6
:1026B00009EB451303F510639B699BB2534512D98F
:1026C000EB005B1B9A003A44516D136D99420AD29C
:1026D0004BB15B1AC5EBC5018A003A44566C9E4269
:1026E000D0D31E46CEE73EB90123AB40D8F83458CC
:1026F00025EA0305C8F83458002002B0BDE8F08789
:1027000000287DD0F0B58BB0044690F8BD33E3B11E
:10271000032384F8BD33206803F02EFE254655F8C8
:10272000107B6E460FCD0FC60FCD0FC695E8030088
:1027300086E80300231D0ECB384603F0D9FD0021A7
:10274000206803F01FFE00231AE080F8BC3309F074
:1027500087FFDDE7D900C81A82002244012082F8F1
:102760003D0082F83C30A2F84230002082F83F0061
:1027700050649064CA1A9100214408650133DBB2A9
:102780000E2BE7D9002315E0D800C11A8A00224495
:10279000002182F8FD1182F8FC3182F8FF11C2F8A5
:1027A0000412C2F80812C21A90002044C0F8101295
:1027B0000133DBB20E2BE7D9254655F8107B6E4668
:1027C0000FCD0FC60FCD0FC695E8030086E80300B6
:1027D000231D0ECB384603F01BFE002384F838304F
:1027E000012384F8BD33636A012B05D0206804F00F
:1027F00094F900200BB0F0BD204600F00FFDF5E786
:102800000120704790F8BC33012B0ED010B5044660
:10281000012380F8BC33006804F073F9206803F0EA
:10282000A5FD002084F8BC0310BD02207047000005
:102830002DE9F04F83B004460568D5F8409028464E
:1028400004F0A8F910B103B0BDE8F08FA846064621
:10285000206804F06EF90028F5D0206804F069F9CA
:1028600010F0020F04D02268536903F00203536191
:10287000206804F05EF910F4002F40F09280374693
:10288000206804F056F910F4802F40F0358120685C
:1028900004F04FF90028C0F2A381206804F049F940
:1028A00010F4006F0AD0D5F8083813F0010F40F08B
:1028B000B1812268536903F400635361206804F016
:1028C00038F910F0006F15D02268536903F00063E7
:1028D000536194F8F033002B40F0A081012184F87B
:1028E000F01323685B6DC3F38303C4F8F43320460D
:1028F0000AF024F8206804F01CF910F4805F40F01E
:102900009181206804F015F910F4005F40F0E28135
:10291000206804F00EF910F0100F14D022689369AB
:1029200023F0100393612E6A06F00F08C6F34343A9
:10293000022B00F06282062B00F0808222689369ED
:1029400043F010039361206804F0F3F810F0080FCF
:1029500040F08882206804F0ECF810F4801F40F00A
:102960008A82206804F0E5F810F4001F40F08D82A0
:10297000206804F0DEF810F0804F40F0908220686C
:1029800004F0D7F810F0040F3FF45DAF23685D68E2
:1029900015F0040F40F08C82226853682B4353607B
:1029A00051E7206804F0C9F8824637464FE0D8F86E
:1029B000082B12F4004F67D04FF400429A6063E096
:1029C000F900C91B8A002244D2F804121869C0F326
:1029D0001200091AC2F81412D2F80402D2F808122E
:1029E0000144C2F8081252E00199204609F078FE2D
:1029F00003E00199204609F073FE2369012B52D0B0
:102A00001BF0080F10D0C34B99455DD0C24B9945C0
:102A100002D92369012B63D0204609F059FE08EB47
:102A200047130822C3F8082B1BF0100F04D008EB43
:102A300047131022C3F8082B1BF0200F04D008EB1B
:102A400047132022C3F8082B01374FEA5A0ABAF17C
:102A5000000F3FF415AF1AF0010FF5D0FBB2019350
:102A60001946206804F079F8834610F0010FC7D0AA
:102A700008EB471303F5306301229A60A64A91459B
:102A800002D92269012A92D02269012A98D0A14A4A
:102A90009145AED1D8F8082B12F4004FA4D04FF4D2
:102AA00000429A60A9E7002FAAD1C7EBC7029300A2
:102AB0002344D3F81032002BA2D104F57072012107
:102AC000206804F087F89BE7D8F8083B13F4004F20
:102AD0009CD008EB47134FF40042C3F8082B95E74E
:102AE000D8F8083B13F4004F96D008EB47134FF487
:102AF0000042C3F8082B8FE7206804F026F88146CF
:102B000037462EE0FA00D21B93002344596C9A6C8E
:102B10000A449A6448E01AF0080F04D008EB4713FF
:102B20000822C3F808291AF0100F04D008EB471345
:102B30001022C3F808291AF0400F04D008EB4713FD
:102B40004022C3F808291AF0020F04D008EB4713FB
:102B50000222C3F808291AF0800F3CD101374FEA4E
:102B60005909B9F1000F3FF492AE19F0010FF5D0F9
:102B70005FFA87FB5946206803F0F8FF824610F0A1
:102B8000010FC8D007F00F03012101FA03F2D8F8B2
:102B9000343823EA0203C8F8343808EB4713C3F883
:102BA000081923698B42ADD05946204609F0A4FD8F
:102BB0002369012BAFD1002FADD1C7EBC702930022
:102BC00023441B6D002BA6D104F5707201212068EF
:102BD00004F000F89FE739462046FFF73BFDBDE7CC
:102BE000D5F8043823F00103C5F8043894F8F0331D
:102BF000012B08D0204609F0B9FD2268536903F083
:102C00000043536149E6002184F8F013204609F09F
:102C100095FEF2E7204609F091FD4AE6204609F0CC
:102C20008DFD67E605F50069D9F8043023F001034E
:102C3000C9F804301021206803F0BCFB14E008EB55
:102C400046134FF67F31C3F80819D3F8002922F450
:102C50000012C3F80029C3F8081BD3F8002B22F494
:102C60000012C3F8002B01366368B342E7D8D9F8E5
:102C70001C3043F00113C9F81C30236BEBB1D9F8B9
:102C8000843043F00B03C9F88430D9F8443043F062
:102C90000B03C9F84430D5F8003823F4FE63C5F8B7
:102CA000003804F57072217C206803F093FF2268DD
:102CB000536903F48053536123E6D9F8143043F089
:102CC0002B03C9F81430D9F8103043F00B03C9F8BE
:102CD0001030E0E7206803F061FF2268D36823F436
:102CE0007053D360206803F065FCB8B90023E3603B
:102CF0004FF4007363612268D36843F41053D360C8
:102D0000204609F00AFD2268536903F40053536119
:102D1000FEE500BF0A31544F0A30544F0323E360ED
:102D20004023636100F0BCFD634B0344634A93425C
:102D300005D82268D36843F47053D360E0E7604B52
:102D40000344604A934205D82268D36843F4605331
:102D5000D360D5E75C4B03445C4A934205D82268B4
:102D6000D36843F45053D360CAE7594B0344594ADC
:102D7000934205D82268D36843F44053D360BFE739
:102D8000554B0344554A934205D82268D36843F40F
:102D90003053D360B4E7524B0344524A934205D8B0
:102DA0002268D36843F42053D360A9E74E4B034411
:102DB0004E4A934205D82268D36843F41053D36037
:102DC0009EE74B4B03444B4A934205D82268D36895
:102DD00043F40053D36093E7474B0344474A93427D
:102DE00005D82268D36843F4E053D36088E72268AB
:102DF000D36843F4C053D36082E747F6F0731E42B2
:102E00003FF49CAD4FEAC80AAAEB08034FEA8309D6
:102E1000A1443609C6F30A02D9F80812284603F07D
:102E2000F1FDC6F30A06D9F808323344C9F808326E
:102E3000D9F814321E44C9F814627FE5082204F55B
:102E40007071284603F0DEFDC6F30A164FEAC80388
:102E5000A3EB08018A002244D2F814321E44C2F8BF
:102E600014626BE5204609F052FC2268536903F0B6
:102E7000080353616EE5F9B2204609F083FC22682D
:102E8000536903F4801353616BE5F9B2204609F0EE
:102E900073FC2268536903F40013536168E520460C
:102EA00009F076FC2268536903F08043536166E5BC
:102EB000204609F073FC6FE5405327FFFF340C00F8
:102EC000401E1BFF3F420F0000DC0BFF7F4F120034
:102ED000808CF9FE1FD6130060B6E5FE5FE3160096
:102EE00000D3CEFE3F771B00C05BB3FEBF91210035
:102EF00000CA91FE1F753800E05459FEDF9C410066
:102F000090F8BC33012B0DD010B50446012380F896
:102F1000BC3380F83810006803F0E3FD002084F82B
:102F2000BC0310BD02207047F8B511F0800F28D106
:102F300001F00F06F500AF1BBC00274604F5FC743A
:102F4000044404343E460644002586F8FD5101F051
:102F50000F012170A260E370627802B1E180022B60
:102F60001ED090F8BC33012B1DD00546012380F8FC
:102F7000BC332146006803F031FB002085F8BC0318
:102F8000F8BD01F00F06F500AF1BBC002746383432
:102F9000044404343E460644012586F83D50D6E7F5
:102FA00000232371DDE70220EAE738B511F0800F36
:102FB00021D101F00F05EA00541BA3001C4603F5C4
:102FC000FC730344043325460544002285F8FD21A3
:102FD00001F00F01197090F8BC23012A1AD00446A1
:102FE000012280F8BC231946006803F03FFB002053
:102FF00084F8BC0338BD01F00F04E200151BAB00E0
:103000001D463833034404332C460444012284F81B
:103010003D20DDE70220EDE770B501F00F05EE0081
:10302000711B8C0004F5FC740444211D761BB40054
:103030000444C4F80822C4F810320023C4F814323F
:1030400084F8FD3184F8FC510369012B06D065B189
:10305000DAB2006803F0E6FB002070BDC5EBC506E0
:10306000B4000444C4F80C22F1E7DAB2006803F0BB
:1030700045FBF1E701F00F01C1EBC1018B001844E2
:10308000B0F81402704770B501F00F05EE00711B27
:103090008C0038340444211D761BB4000444A2641F
:1030A000236500236365012384F83D3084F83C5098
:1030B0000369012B06D05DB1DAB2006803F0B2FB00
:1030C000002070BDC5EBC506B4000444E264F2E71D
:1030D000DAB2006803F012FBF2E738B501F00F0531
:1030E00043689D4236D811F0800F20D1CA00541A8F
:1030F000A3001C4603F5FC73034404332246024438
:10310000002182F8FD1101229A701D7090F8BC23F5
:10311000012A21D00446012280F8BC231946006808
:1031200003F084FC7DB1002084F8BC0313E0EA00C6
:10313000511B8B00194638330344043301440122E8
:1031400081F83D20DFE704F57072217C206803F0F0
:1031500041FDE8E7012038BD0220FCE710B501F091
:103160000F0443689C422CD811F0800F1DD1E3005E
:103170001A1B91000A4601F5FC7101440431024416
:10318000002382F8FD3100238B700C7090F8BC3363
:10319000012B18D00446012380F8BC33006803F0EB
:1031A00072FC002084F8BC030CE0E3001A1B9100C1
:1031B0000A463831014404310244012382F83D308B
:1031C000E1E7012010BD0220FCE730B40468606A2A
:1031D00029B10D46A36A00EB134000230CE040EA3E
:1031E0000240A06212E003F1400104EB8101496852
:1031F00000EB11400133DBB2691E8B42F3D340EA8E
:10320000024005F13F0104EB81014860002030BC21
:103210007047036859620020704700000246036847
:103220000121C0F8F813002082F8F0039A6942F0F7
:1032300000629A61596D024A0A435A65704700BF9D
:103240000300001010B582B01B4B1A6C42F0805284
:103250001A641B6C03F080530193019B174A136897
:1032600043F480331360FDF7C1FE0446134B5B68E3
:1032700013F4803F08D1FDF7B9FE001BB0F57A7F4B
:10328000F4D9032002B010BD0C4A136843F4003394
:103290001360FDF7ABFE0446084B5B6813F4003F78
:1032A00007D1FDF7A3FE001BB0F57A7FF4D9032008
:1032B000E8E70020E6E700BF003802400070004069
:1032C000002800F0DB8170B582B00446036813F07B
:1032D000010F29D0A24B9B6803F00C03042B1AD0DA
:1032E0009F4B9B6803F00C03082B0FD06368B3F56A
:1032F000803F40D0002B54D1994B1A6822F4803281
:103300001A601A6822F480221A6039E0944B5B68D4
:1033100013F4800FEAD0924B1B6813F4003F03D0E4
:103320006368002B00F0AC81236813F0020F75D0A6
:103330008B4B9B6813F00C0F5ED0894B9B6803F09E
:103340000C03082B53D0E368002B00F08A80844ADA
:10335000136843F001031360FDF748FE0546804BF8
:103360001B6813F0020F73D1FDF740FE401B0228CB
:10337000F5D9032087E17A4A136843F48033136058
:1033800063682BB3FDF732FE0546754B1B6813F4DB
:10339000003FC9D1FDF72AFE401B6428F5D9032060
:1033A00071E1B3F5A02F09D06D4B1A6822F4803279
:1033B0001A601A6822F480221A60E1E7684B1A68E2
:1033C00042F480221A601A6842F480321A60D7E709
:1033D000FDF70CFE0546624B1B6813F4003FA3D0BB
:1033E000FDF704FE401B6428F5D903204BE15C4B3C
:1033F0005B6813F4800FA6D1594B1B6813F0020FC2
:1034000004D0E368012B01D001203CE1544A136849
:1034100023F0F803216943EAC1031360236813F022
:10342000080F46D0636983B34D4A536F43F00103DD
:103430005367FDF7DBFD0546494B5B6F13F0020F49
:1034400037D1FDF7D3FD401B0228F5D903201AE13F
:10345000434A136823F0F803216943EAC103136068
:10346000DCE73F4A136823F001031360FDF7BEFD5C
:1034700005463B4B1B6813F0020FCFD0FDF7B6FD9E
:10348000401B0228F5D90320FDE0354A536F23F095
:1034900001035367FDF7AAFD0546314B5B6F13F03F
:1034A000020F06D0FDF7A2FD401B0228F5D903202C
:1034B000E9E0236813F0040F7ED0294B1B6C13F056
:1034C000805F1ED1264B1A6C42F080521A641B6C2E
:1034D00003F080530193019B0125224B1B6813F4D9
:1034E000807F10D0A368012B21D0002B3CD11C4B36
:1034F0001A6F22F001021A671A6F22F004021A678B
:103500001AE00025E9E7174A136843F48073136053
:10351000FDF76CFD0646134B1B6813F4807FE1D169
:10352000FDF764FD801B6428F5D90320ABE00C4A4D
:10353000136F43F001031367A3685BB3FDF756FDF8
:103540000646074B1B6F13F0020F34D1FDF74EFDFB
:10355000801B41F288339842F3D9032093E000BFE7
:103560000038024000700040052B09D0484B1A6F0C
:1035700022F001021A671A6F22F004021A67DBE7D1
:10358000434B1A6F42F004021A671A6F42F00102AD
:103590001A67D1E7FDF72AFD06463D4B1B6F13F076
:1035A000020F08D0FDF722FD801B41F288339842BC
:1035B000F3D9032067E0F5B9A369002B62D0344A40
:1035C000926802F00C02082A5FD0022B19D0304A10
:1035D000136823F080731360FDF708FD04462C4B3D
:1035E0001B6813F0007F47D0FDF700FD001B022889
:1035F000F5D9032047E0264A136C23F08053136467
:10360000DAE7234A136823F080731360FDF7EEFCBA
:1036100005461F4B1B6813F0007F06D0FDF7E6FC44
:10362000401B0228F5D903202DE0E369226A1343E9
:10363000626A43EA8213A26A5208013A43EA0243E9
:10364000E26A43EA026343F00053114A536013688D
:1036500043F080731360FDF7C9FC04460C4B1B68F4
:1036600013F0007F06D1FDF7C1FC001B0228F5D93D
:10367000032008E0002006E0002004E0012070475D
:10368000012000E0002002B070BD0120FBE700BF78
:1036900000380240264B9B6803F00C03042B44D0F7
:1036A000082B01D0234870472DE9F04B204B5A6876
:1036B00002F03F025B6813F4800F13D01C4B596873
:1036C000C1F3881100231C48A1FB0001FDF76EFA2D
:1036D000174B5B68C3F3014301335B00B0FBF3F0AE
:1036E000BDE8F08B124B5B68C3F388131E460027BE
:1036F0005C010025E41A65EB0705A90141EA946124
:10370000A001001B61EB0501CB0043EA5073C4002C
:10371000A01943EB07018B0243EA90538402204631
:1037200019460023FDF742FAD2E70348704700BF6D
:10373000003802400024F40040787D01002800F0A9
:10374000A28070B50446524B1B6803F00F038B42F6
:103750000CD24F4A136823F00F030B431360136816
:1037600003F00F038B4201D0012070BD236813F0DA
:10377000020F17D013F0040F04D0464A936843F4A5
:10378000E0539360236813F0080F04D0414A936814
:1037900043F4604393603F4A936823F0F003A068CA
:1037A000034393600D46236813F0010F31D0636823
:1037B000012B20D0022B25D0364A126812F0020FBE
:1037C00063D034498A6822F0030213438B60FDF70B
:1037D0000DFC06462F4B9B6803F00C036268B3EBAD
:1037E000820F16D0FDF702FC801B41F2883398420D
:1037F000F0D90320B9E7274A126812F4003FE0D15C
:103800000120B2E7234A126812F0007FD9D10120CB
:10381000ABE71F4B1B6803F00F03AB420CD91C4AEC
:10382000136823F00F032B431360136803F00F0397
:10383000AB4201D0012098E7236813F0040F06D0B3
:10384000144A936823F4E053E1680B4393602368C0
:1038500013F0080F07D00F4A936823F460432169DF
:1038600043EAC1039360FFF715FF0A4B9B68C3F35C
:103870000313094AD35CD840084B18600020FDF7B9
:103880006FFB002071E70120704701206DE700BF4A
:10389000003C024000380240F4CD020860010020E4
:1038A000014B1868704700BF60010020F0B583B07D
:1038B0000446036813F0010F0CD0AF4B9A6822F452
:1038C00000029A609A68416B0A439A60436BC3B1E5
:1038D000002600E00026236813F4002F15D0A64A26
:1038E000D2F88C3023F44013E16B0B43C2F88C30D8
:1038F000E36BB3F5801F06D0002B00F01B81002581
:1039000004E00126E7E70126F6E70025236813F423
:10391000801F0FD0984AD2F88C3023F44003216CDA
:103920000B43C2F88C30236CB3F5800F00F0048198
:1039300003B90125236813F0807F00D0012613F01E
:10394000200F40F0FB80236813F0100F0CD08A4B3F
:10395000D3F88C2022F08072C3F88C20D3F88C200E
:10396000A16B0A43C3F88C20236813F4804F08D05E
:10397000814AD2F8903023F44033616E0B43C2F891
:103980009030236813F4004F08D07B4AD2F890306F
:1039900023F44023A16E0B43C2F89030236813F444
:1039A000803F08D0744AD2F8903023F44013E16E7F
:1039B0000B43C2F89030236813F4003F08D06E4ADE
:1039C000D2F8903023F44003216F0B43C2F89030BB
:1039D000236813F0400F08D0674AD2F8903023F0E4
:1039E0000303616C0B43C2F89030236813F0800F1F
:1039F00008D0614AD2F8903023F00C03A16C0B433D
:103A0000C2F89030236813F4807F08D05A4AD2F865
:103A1000903023F03003E16C0B43C2F89030236800
:103A200013F4007F08D0544AD2F8903023F0C0033A
:103A3000216D0B43C2F89030236813F4806F08D0D7
:103A40004D4AD2F8903023F44073616D0B43C2F8B5
:103A50009030236813F4006F08D0474AD2F89030B2
:103A600023F44063A16D0B43C2F89030236813F434
:103A7000805F08D0404AD2F8903023F44053E16D83
:103A80000B43C2F89030236813F4005F08D03A4A21
:103A9000D2F8903023F44043216E0B43C2F89030AB
:103AA000236813F4800F08D0334AD2F8903023F003
:103AB0008063A16F0B43C2F89030236813F4001F9A
:103AC0000DD02D4AD2F8903023F00063E16F0B4304
:103AD000C2F89030E36FB3F1006F00F09980236873
:103AE00013F0080F00D0012513F4802F08D0224ACC
:103AF000D2F8903023F04073616F0B43C2F89030DE
:103B0000236813F4000F09D01B4AD2F8903023F039
:103B10008053D4F880100B43C2F89030002E79D136
:103B20002368B3F1007F75D0002D40F0068100209E
:103B300003B0F0BD0125E9E60126F9E60E4B1A6C4B
:103B400042F080521A641B6C03F080530193019B76
:103B50000A4A136843F480731360FDF747FA074677
:103B6000064B1B6813F4807F0AD1FDF73FFAC01B98
:103B70006428F5D90320DBE70038024000700040DC
:103B8000B34B1B6F13F4407315D0226B02F44072D9
:103B90009A4210D0AE4B1A6F22F44072196F41F462
:103BA00080311967196F21F4803119671A671B6F0B
:103BB00013F0010F12D1236B03F44072B2F5407F72
:103BC0001DD0A34A936823F4F8139360A0490B6FA8
:103BD000226BC2F30B0213430B67B4E6FDF706FA40
:103BE00007469B4B1B6F13F0020FE4D1FDF7FEF964
:103BF000C01B41F288339842F3D9032098E79448D8
:103C0000826822F4F812934919400A438260DDE782
:103C1000012564E78E4A136823F080631360FDF783
:103C2000E5F906468A4B1B6813F0006F06D0FDF7D6
:103C3000DDF9801B6428F5D9032079E7236813F0A8
:103C4000010F13D0636B8BB9814AD2F88430D2F85C
:103C50008410606803F4403343EA801301F070611C
:103C60000B43A16843EA0173C2F88430236813F45C
:103C7000002F03D0E26BB2F5801F06D013F4801F33
:103C80001ED0236CB3F5800F1AD1714AD2F884305C
:103C9000D2F88410606803F4403343EA8013E0688C
:103CA00043EA006301F0E0410B43C2F88430D2F8EC
:103CB0008C3023F01F03616A01390B43C2F88C304A
:103CC000236813F0807F11D0614AD2F88400D2F8C3
:103CD0008410666823691B0443EA861300F0706051
:103CE000034301F0E0410B43C2F88430236813F032
:103CF000007F0DD0626823691B0443EA8213E268E7
:103D000043EA0263A26843EA0273514AC2F884306C
:103D10004F4A136843F080631360FDF767F9064666
:103D20004B4B1B6813F0006F7FF4FEAEFDF75EF99E
:103D3000801B6428F4D90320FAE6454A136823F06F
:103D400080531360FDF752F90546414B1B6813F091
:103D5000005F06D0FDF74AF9401B6428F5D903201F
:103D6000E6E6236813F4002F01D0E26B22B113F4CE
:103D7000801F1DD0236CDBB9354AD2F88830D2F8C9
:103D80008810606903F4403343EA8013A06943EA72
:103D9000006301F0E0410B43C2F88830D2F88C3068
:103DA00023F4F853A16A013943EA0123C2F88C30A5
:103DB000236813F4001F03D0E36FB3F1006F31D019
:103DC000236813F0080F19D0214AD2F88810D2F8CE
:103DD0008830606903F4403343EA801301F0706176
:103DE0000B43E16943EA0173C2F88830D2F88C30A2
:103DF00023F44033E16A0B43C2F88C30144A136851
:103E000043F080531360FDF7F1F80446104B1B6834
:103E100013F0005F19D1FDF7E9F8001B6428F5D90C
:103E2000032085E60A4AD2F88800D2F8881065692E
:103E3000236A1B0443EA851300F07060034301F01A
:103E4000E0410B43C2F88830BAE7002070E600BFBB
:103E500000380240FFFCFF0F90B110B50446437AD2
:103E600053B1022363722268136843F004031360A2
:103E700001236372002010BD037208F03BFAF0E7E3
:103E8000012070477047704710B5044603685A68B0
:103E900012F0200F03D15B6813F0400F08D0042309
:103EA00063722046FFF7EFFF23686FF060025A60ED
:103EB00023685A6812F0010F0FD01A6822F0080226
:103EC0001A60236899686160637ADBB2042B04D0BE
:103ED000012363722046FFF7D5FF10BD38B50446B5
:103EE0000268D36823F0A003D360FDF77FF805468E
:103EF0002368DB6813F0200F07D1FDF777F8401B2C
:103F0000B0F57A7FF4D9032000E0002038BD38B541
:103F10000368DA6812F0400F01D0002038BD044673
:103F20004FF0FF32DA60FDF761F805462368DB6881
:103F300013F0400F07D1FDF759F8401BB0F57A7F19
:103F4000F4D90320EAE70020E8E7000000284AD07F
:103F500038B50446437F002B3AD0022363772368A9
:103F6000CA225A62236853225A622046FFF7CFFFC3
:103F70000246002830D1216888681C4B03408B60C2
:103F800020688168636825692B4365692B430B436F
:103F900083602368E168196121680B69A06843EABE
:103FA00000430B612168CB6823F08003CB6021685C
:103FB000CB6C23F00803CB642168CB6CA06903436E
:103FC000CB642368FF21596201236377104638BD13
:103FD000037708F0AFF9C0E72368FF225A62042391
:103FE00063770122F2E7012210467047BFFF8FFF7F
:103FF000002302E001330A38C0B20928FAD81B01B5
:10400000DBB218437047000070B5037F012B64D00A
:1040100001230377022343773AB94B7813F0100F4B
:1040200003D003F0EF030A334B700E460446002A18
:1040300030D1C878FFF7DCFF05047078FFF7D8FFB0
:1040400045EA0025B078FFF7D3FF0543307845EA0D
:1040500040352368CA225A62236853225A62204696
:10406000FFF755FF064600BB22681D4B2B405360EF
:104070002268D36823F08003D36023689B6813F021
:10408000200F1CD02368FF225A620123637700238C
:10409000237712E0C8784D782D0245EA00458878EC
:1040A0000543087845EA4035D3E72368FF225A6282
:1040B00004236377002323770126304670BD204612
:1040C000FFF70CFF0028DDD02368FF225A6204238B
:1040D0006377002323770126EFE70226EDE700BF91
:1040E0003FFFFF00F8B5037F012B76D00D46044655
:1040F0000123037702234377002A44D103689B6896
:1041000013F0400F01D100230B732878FFF770FFE5
:1041100006046878FFF76CFF46EA0026A878FFF7E8
:1041200067FF0643287B46EA00462368CA225A6294
:10413000236853225A622046FFF7E9FE074600280B
:1041400033D12268264B334013602268936823F4EE
:104150008023936021688B682A696869024313434E
:104160008B602268D36823F08003D36023689B6848
:1041700013F0200F23D02368FF225A6201236377B4
:104180000023237719E003689B6813F0400F01D1E7
:1041900000230B7328786E78360246EA0046A8782A
:1041A0000643287B46EA0046BFE72368FF225A629F
:1041B000042363770023237701273846F8BD204680
:1041C000FFF78CFE0028D6D02368FF225A62042312
:1041D0006377002323770127EFE70227EDE700BF8E
:1041E0007F7F7F00030903EB83035A0000F00F0079
:1041F0001044C0B27047000070B503689B6A4B6002
:1042000003681B69C3F30E038B60036818680F4DC6
:1042100005402C0C04F03F000870C5F306264E70D4
:1042200005F07F058D7004F040040C735AB90C46FC
:10423000FFF7D8FF20703046FFF7D4FF60702846A4
:10424000FFF7D0FFA070002070BD00BF7F7F7F0010
:1042500070B5036858680E4B0340180CC870C3F360
:1042600004264E7003F03F058D70C3F342330B708C
:104270005AB90C46FFF7B6FFE0703046FFF7B2FFC1
:1042800060702846FFF7AEFFA070002070BD00BF31
:104290003FFFFF0070B582B0044600230193006821
:1042A00001F052FF054610B1284602B070BD2068EB
:1042B00001F05DFF0646F8B10023A3642846C0B9AB
:1042C000019B5A1C01924FF6FF72934240D000218D
:1042D000206801F063FF00283DD10021206801F033
:1042E00075FF00283AD10021206801F06CFDC00F55
:1042F000E5E700236364D7E70123A3640346E0B93D
:10430000019B5A1C01924FF6FF72934229D0002163
:10431000206801F043FF05460028C5D14FF08041D9
:10432000206801F053FF05460028BDD10021206818
:1043300001F049FD0346C00FE1E713F0804F03D1C0
:10434000002363643546AFE7012363643546ABE77A
:104350004FF08075A8E74FF08055A5E74FF08055E6
:10436000A2E74FF080759FE770B50546866A002486
:1043700005E0286801F002FD46F824000134072C0E
:10438000F7D9AB6A2033AB62002070BD70B505462B
:10439000066A002405E006EB8401286801F0F1FCC0
:1043A0000134072CF7D92B6A20332B62002070BD13
:1043B00070B581B10D460446016D0904006801F035
:1043C00061FF064608B1304670BD0021206801F04B
:1043D000FAFC2860F7E74FF00066F4E72DE9F043B8
:1043E00087B004460D4616461F46FCF7FFFD6DB12B
:1043F000804694F83430DBB2012B0DD0A36B43F030
:104400000053A363012007B0BDE8F083A36B43F022
:104410000063A3630120F6E70023A363F319E26DB1
:1044200093421BD8032384F8343023680022DA62D5
:10443000636C012B00D076024FF40071206801F00C
:10444000D9FD034680B1226840F2FF519163A06B11
:104450001843A063012084F83400D4E7A36B43F031
:104460000073A3630120CEE74FF0FF3300937B027C
:1044700001939023029302230393002304930123C7
:1044800005936946206801F0A3FD012F15D9022389
:1044900023633146206801F0DDFD8146B9F1000F4C
:1044A00025D0236840F2FF529A63A36B43EA0903C5
:1044B000A363012084F83400A5E701232363314678
:1044C000206801F0AFFD8146E8E7206801F056FC66
:1044D00045F826000136072EF7D920350E9B8BB103
:1044E000FCF784FDA0EB08000E9B98420AD22068DE
:1044F000436B13F4957F12D1436B13F4004FEDD04F
:104500004E46E8E7236840F2FF529A63A36B43F0FC
:104510000043A363012384F83430032073E7436B23
:1045200013F4807F07D0012F05D9636C032B02D0D1
:1045300001F0D8FD50BB23685A6B12F0080F30D140
:104540005A6B12F0020F37D15A6B12F0200F3ED186
:104550002068436B13F4001F44D001F00FFC45F8B2
:10456000040B0E9B33B1FCF741FDA0EB08000E9B42
:104570009842EDD3236840F2FF529A63A36B43F055
:104580000043A363012084F834003CE7236840F231
:10459000FF519963A36B0343A363012084F83400A4
:1045A00031E740F2FF529A63A36B43F00803A36321
:1045B000012084F8340026E740F2FF529A63A36B8F
:1045C00043F00203A363012084F834001BE740F2A8
:1045D000FF529A63A36B43F02003A363012084F886
:1045E000340010E740F2FF538363012384F8343032
:1045F000002008E72DE9F04387B004460D46164633
:104600001F46FCF7F3FC6DB1804694F83430DBB202
:10461000012B0DD0A36B43F00053A363012007B01F
:10462000BDE8F083A36B43F00063A3630120F6E7CA
:104630000023A363F319E26D934228D8032384F87F
:10464000343023680022DA62636C012B00D07602DA
:104650004FF40071206801F0CDFC0346E8B9012F4A
:1046600026D9202323633146206801F023FD8146AB
:10467000B9F1000F24D0236840F2FF529A63A36B74
:1046800043EA0903A363012084F83400C7E7A36B5E
:1046900043F00073A3630120C1E7226840F2FF5199
:1046A0009163A06B1843A063012084F83400B6E73F
:1046B000102323633146206801F0E4FC8146D7E7EC
:1046C0004FF0FF3300937B0201939023029300236A
:1046D00003930493012305936946206801F078FC55
:1046E00011E005EB8601206801F04BFB0136072E37
:1046F000F7D920350E9B8BB1FCF778FCA0EB0800B6
:104700000E9B98420AD22068436B13F48D7F12D11E
:10471000436B13F4804FEDD04E46E8E7236840F238
:10472000FF529A63A36B43EA0903A363012384F84E
:104730003430032073E7436B13F4807F07D0012FDD
:1047400005D9636C032B02D001F0CCFCB8B9236807
:104750005A6B12F0080F1DD15A6B12F0020F24D1C0
:104760005A6B12F0100F2BD040F2FF529A63A36BDA
:1047700043F01003A363012084F834004FE723685B
:1047800040F2FF519963A36B0343A363012084F8B4
:10479000340044E740F2FF529A63A36B43F00803EE
:1047A000A363012084F8340039E740F2FF529A6392
:1047B000A36B43F00203A363012084F834002EE7C7
:1047C00040F2FF529A63012384F83430002026E738
:1047D000704730B4436E9A0F0A70C3F383624A7015
:1047E000C3F301638B7090F86630CB7090F865303E
:1047F0000B7190F864304B7190F86B301B01CB80DB
:10480000B0F86A30CC88C3F303122243CA8003F0A5
:104810000F030B7290F86930DA094A72C3F3801201
:104820008A72C3F34012CA72C3F300120A730022E1
:104830004A73426C002A40F092809B0203F440636A
:104840000B61836E0A699B0003F47F7313430B6152
:10485000C36E0A6942EA93720A61C3F3C2620A75BF
:10486000C3F302634B75C26EC2F30743C2F34254F3
:104870008C75C2F38242CA755B0003F006030B76A7
:10488000C26EC2F307230C7EC2F3C03222430A7603
:104890000A69013242650C7E023402FA04F444656E
:1048A0000A7AD5B20122AA408265520A02FB04F2BA
:1048B000C2654FF400720266C3F380124A765B0051
:1048C00003F07E038B76C36E8A7EC3F3C01422434B
:1048D0008A7603F07F03CB76036F1A0EDC0F0C771A
:1048E000C3F341744C77C3F382638B77930003F077
:1048F0000C03CB77036FCA7FC3F381542243CA777B
:10490000C3F3405281F82020002281F82120C3F314
:10491000004381F82230036FC3F3C03481F8234091
:10492000C3F3803481F82440C3F3403481F8254038
:10493000C3F3003481F82640C3F3812481F8274073
:10494000C3F3012381F82830036FC3F3460381F8D2
:104950002930012381F82A30104630BC7047012AE3
:104960000CD0036840F2FF529A63836B43F080538C
:104970008363012280F834201046EEE7836E1B0427
:1049800003F47C130B6190F86F200B6943EA022358
:104990000B610A6990F86E3013430B6190F86D302B
:1049A0000A69013292024265C2654FF40072826563
:1049B000026681E770B590B004460123ADF812306D
:1049C000006801F0E7F900286AD0636C032B43D13B
:1049D000636C032B5BD1636C032B1DD0BDF81210ED
:1049E00021650904206801F020FC0546002859D102
:1049F0000021206801F0E7F960660421206801F0D9
:104A0000E2F9A0660821206801F0DDF9E0660C21DA
:104A1000206801F0D8F920670421206801F0D3F95B
:104A2000000DE06405A92046FFF7D3FE226D1204B5
:104A30000023206801F070FB054698BB234653F81D
:104A4000106B93E807008DE80700043494E80E002B
:104A5000304601F077F925E0206801F0D1FB0546EA
:104A600000BB0021206801F0AEF9606704212068D6
:104A700001F0A9F9A0670821206801F0A4F9E06716
:104A80000C21206801F09FF9C4F88000A0E70DF127
:104A90001201206801F0DEFB054600289BD001E0F2
:104AA0004FF08065284610B070BD10B58AB004463E
:104AB00000230493059306930793089376230993A1
:104AC0000AAB13E907008DE8070004AB0ECB2068A2
:104AD00001F038F92268536823F48073536020682A
:104AE00001F054F92268536843F480735360022044
:104AF000FCF782FA2046FFF7CDFB40B102460120C9
:104B000084F83400A36B1343A3630AB010BD20469E
:104B1000FFF750FF024630B1012084F83400A36B48
:104B20001343A363F1E70020EFE7A8B110B50446F3
:104B300090F8343063B1032384F834302046FFF713
:104B4000B4FF0020A0632063012384F8343010BD3B
:104B5000037707F0FFFBEEE701207047436C0B6023
:104B6000836C4B60C36C8B60036DCB60436D0B61DA
:104B7000836D4B61C36D8B61036ECB610020704709
:104B800010B582B0044602A9002341F8043DFFF7A6
:104B90000FFC18B10346A06B1843A0630198C0F343
:104BA000432002B010BD10B5846B236C0BB1002301
:104BB0002364E36B03B110BD2046FFF7E1FF002340
:104BC000A363012384F834300538C0B29842F2D888
:104BD000206801F087FAA36B1843A063A36B1BB98D
:104BE0002046FFF7F5FDE6E7204605F068FBE2E723
:104BF00010B5846BE36B0BB10023E363236C03B14B
:104C000010BD2046FFF7BCFF0023A363012384F8F7
:104C100034300538C0B29842F2D8206801F062FA08
:104C2000A36B1843A063A36B1BB92046FFF7D0FD0D
:104C3000E6E7204605F043FBE2E7000010B5044636
:104C400003685A6B12F4807F5FD04FF480729A63CE
:104C50000268D36B23F49D73D363036B13F0080FC7
:104C60002AD0036B13F0020F03D1036B13F0200F54
:104C700004D0206801F036FA034690B9236840F268
:104C8000FF529A63012384F83430236B13F0010F31
:104C900003D1236B13F0020F0AD0204605F019FB55
:104CA00010BDA26B1343A3632046FFF791FDE5E718
:104CB000204605F009FBF3E7036B13F0800FEFD0FC
:104CC000036B13F0200F13D1236B13F0010FE7D107
:104CD000236B13F0020FE3D12268D36A23F0080399
:104CE000D362012384F83430204605F0EDFAD7E78B
:104CF000006801F0F7F903460028E5D0A26B1343E2
:104D0000A3632046FFF764FDDEE75A6B12F4804F81
:104D100040D15A6B12F4004F42D15A6B12F03A0F45
:104D2000BED05A6B12F0020F03D0826B42F0020227
:104D300082635A6B12F0080F03D0A26B42F0080294
:104D4000A2635A6B12F0200F03D0A26B42F0200234
:104D5000A2635A6B12F0100F03D0A26B42F0100244
:104D6000A26340F2FF529A632268D36B23F49D73CF
:104D7000D363236B13F0800F2FD0236CB3B11D4A84
:104D80001A65206CFCF7F2FE002889D0206CFFF732
:104D90000AFF85E74FF480429A63FFF7F7FA7FE74F
:104DA0004FF400429A63FFF7DFFA79E7E36B5BB1F8
:104DB000114A1A65E06BFCF7D9FE00283FF470AF8A
:104DC000E06BFFF715FF6BE70023A363012384F873
:104DD0003430204605F073FA62E7236B13F0080FB6
:104DE0003FF45EAF012384F834302046FFF7F0FC37
:104DF00056E700BFA74B0008F14B0008F8B5054681
:104E00000F4616461C462B689B683B40B34238D081
:104E1000B4F1FF3FF7D02CB1FCF7E8F8069BC01ABD
:104E2000A042F0D32A68536823F0E00353606B6814
:104E3000B3F5827F0BD0AB6AB3F5005F14D00123CA
:104E400085F85D30002385F85C3003201AE0AB68FC
:104E5000B3F5806F18BFB3F5004FECD12A68136823
:104E600023F040031360E6E72A68136823F4005335
:104E70001B041B0C13602A68136843F4005313606F
:104E8000DDE70020F8BDF0B583B007460D461446B7
:104E90001E4602E0B6F1FF3F10D13A6893682B40FE
:104EA000A34241D0B5F5C06F08BF002CF2D1137BEF
:104EB000DBB28DF807309DF80730EBE72EB1FCF739
:104EC00095F8089BC01AB042E7D33A68536823F0BC
:104ED000E00353607B68B3F5827F0BD0BB6AB3F508
:104EE000005F14D0012387F85D30002387F85C3021
:104EF00003201AE0BB68B3F5806F18BFB3F5004F0D
:104F0000ECD13A68136823F040031360E6E73A688F
:104F1000136823F400531B041B0C13603A681368D6
:104F200043F400531360DDE7002003B0F0BD70B51B
:104F300082B004460D46164600920B4600224FF4FE
:104F4000C051FFF7A0FFB8B900962B460022802180
:104F50002046FFF753FFB8B900962B4600224FF4C6
:104F6000C0612046FFF78FFF034650B1236E43F028
:104F700020032366032304E0236E43F0200323660B
:104F80000323184602B070BD236E43F0200323664E
:104F90000323F6E7002858D010B5044600238362A7
:104FA00090F85D30002B45D0022384F85D302268F4
:104FB000136823F040031360E368B3F5E06F3ED954
:104FC0000022B3F5706F18BFB3F5E06F01D0002178
:104FD000A162216B21B9B3F5E06F33D902232363BA
:104FE0006368A1680B4321690B4361690B43A169A5
:104FF00001F400710B43E1690B43216A0B43A06A82
:10500000216803430B60638B03F00403616A0B4365
:10501000616B0B43E1680B43216813434B602268CB
:10502000D36923F40063D36100202066012384F850
:105030005D3010BD80F85C3007F0C8F9B4E74FF47C
:105040008052BEE701232363CAE7012070472DE9A0
:10505000F04182B01E4690F85C30012B00F0AC802D
:1050600004460D469046012380F85C30FBF7BEFFF6
:10507000074694F85D30DBB2012B09D002200123F2
:1050800084F85D30002384F85C3002B0BDE8F08124
:10509000B8FA88F35B09002D08BF0123002B40F00C
:1050A0008380032384F85D3000232366A563A4F87E
:1050B0003C80A4F83E802364A4F84430A4F8463031
:1050C0002365E364A368B3F5004F0DD023681A6825
:1050D00012F0400F03D11A6842F040021A60E368F0
:1050E000B3F5E06F0BD82FE02268136843F48043D8
:1050F0001360EBE7002E59D0B6F1FF3F10D1E38FDC
:105100009BB2002B3BD023689A6812F0020FF1D0BB
:1051100035F8022BDA60E38F013B9BB2E387EEE7C1
:10512000FBF764FFC01BB042E9D30320A7E72A784E
:105130001A73E38F013B9BB2E387013504E0002E35
:1051400036D0B6F1FF3F13D1E38F9BB2BBB12368DA
:105150009A6812F0020FF2D0E28F92B2012AE6D9D9
:1051600035F8022BDA60E38F023B9BB2E387EBE773
:10517000FBF73CFFC01BB042E6D303207FE73A4673
:1051800031462046FFF7D3FE08B120232366A368EB
:1051900033B901932368DA6801929B680193019BFC
:1051A000236E3BB900206AE7012068E7032066E729
:1051B000032064E7012062E7022066E770470000F1
:1051C00010B584B0044602685068936803F041014A
:1051D00001290AD013F0020F0ED010F0800F0BD06F
:1051E000236D2046984704B010BD10F0400FF1D059
:1051F000E36C20469847F6E713F4B07FF3D010F045
:10520000200FF0D013F0400F0FD094F85D10C9B20A
:1052100003294AD0216E41F004012166002100914A
:10522000D168009191680091009913F0200F0CD083
:10523000216E41F0010121660021029191680291E5
:10524000116821F040011160029A13F4807F09D0A7
:10525000236E43F0080323660023039323689B68AF
:105260000393039B236E002BBDD02268536823F069
:10527000E0035360012384F85D3010F0030F1CD06D
:105280002268536823F003035360A36D23B10D4AD2
:105290001A65A06DFCF76AFC636D002BA3D0094A68
:1052A0001A65606DFCF762FC9DE700230193D368EB
:1052B000019393680193019B95E72046FFF77EFFDA
:1052C00091E700BFC952000808B5806B0023A0F821
:1052D0004630C387FFF772FF08BD10B4036A046A43
:1052E00024F001040462846924F0F00444EA021208
:1052F00023F00A030B43826103625DF8044B70479D
:1053000010B4036A23F0100303628469036A24F46F
:10531000704444EA023223F0A00343EA011382619D
:1053200003625DF8044B7047836823F0700341F01B
:1053300007011943816070470268D36843F0010395
:10534000D3600268136843F00103136000207047C4
:105350007047704770477047704710B50446036840
:105360001A6912F0020F11D0DA6812F0020F0DD094
:105370006FF002021A610123037703689B6913F03F
:10538000030F79D0FFF7E6FF0023237723681A691C
:1053900012F0040F12D0DA6812F0040F0ED06FF082
:1053A00004021A610223237723689B6913F4407F68
:1053B00068D02046FFF7CEFF0023237723681A69C1
:1053C00012F0080F12D0DA6812F0080F0ED06FF04A
:1053D00008021A61042323772368DB6913F0030FA3
:1053E00057D02046FFF7B6FF0023237723681A69BA
:1053F00012F0100F12D0DA6812F0100F0ED06FF00A
:1054000010021A61082323772368DB6913F4407FB5
:1054100046D02046FFF79EFF0023237723681A69B2
:1054200012F0010F03D0DA6812F0010F3FD12368A8
:105430001A6912F0800F03D0DA6812F0800F3DD1A4
:1054400023681A6912F4807F03D0DA6812F0800FA3
:105450003BD123681A6912F0400F03D0DA6812F0CA
:10546000400F39D123681A6912F0200F03D0DA688F
:1054700012F0200F37D110BDFFF76BFF2046FFF76A
:105480006AFF81E72046FFF764FF2046FFF763FFCE
:1054900092E72046FFF75DFF2046FFF75CFFA3E79A
:1054A0002046FFF756FF2046FFF755FFB4E76FF0A1
:1054B00001021A61204605F015F8B8E76FF0800286
:1054C0001A61204600F007FBBAE76FF080021A610C
:1054D000204600F000FBBCE76FF040021A61204656
:1054E000FFF73AFFBEE76FF020021A61204600F096
:1054F000F1FAC0E770B403683A4CA04214BF00242C
:105500000124B0F1804F14BF224644F00102AAB931
:10551000354DA84214BF00250125344EB0420DD0B0
:1055200065B905F1804505F58235A84214BF00250F
:10553000012506F50066B04200D01DB123F07003CE
:105540004D682B43002A33D1274A904214BF0022D2
:105550000122264DA8422BD052BB02F1804202F517
:105560008232904214BF0022012205F50065A84254
:105570001ED0EAB91E4A904214BF0022012205F54E
:105580009A35A84214D09AB91A4A904214BF002200
:10559000012205F50065A8420AD04AB9164A904290
:1055A00014BF00220122A5F59635A84200D01AB1F9
:1055B00023F44073CA68134323F080034A691343FA
:1055C00003608A68C2620A6882620C4B984214BF08
:1055D000234644F001030BB10B69036301234361CC
:1055E00070BC70470000014000080040000400400B
:1055F0000044014000180040002000400004014029
:10560000A8B110B5044690F83D305BB1022384F890
:105610003D30211D2068FFF76DFF012384F83D30E8
:10562000002010BD80F83C3006F000FFEEE70120BE
:105630007047A8B110B5044690F83D305BB1022325
:1056400084F83D30211D2068FFF754FF012384F8C2
:105650003D30002010BD80F83C30FFF779FEEEE7CA
:105660000120704770B4036A23F001030362036AE8
:1056700042688569104C2C400D682C4323F00205CC
:105680008B682B430D4E0E4DA84218BFB0420BD174
:1056900023F00803CD682B4323F0040322F4407267
:1056A0004D6915438A692A43426084614A684263AE
:1056B000036270BC704700BF8CFFFEFF000001401A
:1056C0000004014070B4036A23F010030362036A0C
:1056D00044688569124A2A400D6842EA052223F08F
:1056E00020038D6843EA05130E4E0F4DA84218BFE4
:1056F000B0420ED123F08003CD6843EA051323F0B6
:10570000400324F440644D6944EA85048D6944EA09
:105710008504446082614A688263036270BC70479A
:10572000FF8CFFFE000001400004014070B4036ADA
:1057300023F480730362036A4268C569124C2C40EB
:105740000D682C4323F400738D6843EA05230F4E44
:105750000F4DA84218BFB0420ED123F40063CD68AC
:1057600043EA052323F4806322F440524D6942EA60
:1057700005128D6942EA05124260C4614A68C2633B
:10578000036270BC704700BF8CFFFEFF0000014049
:105790000004014070B4036A23F480530362036A77
:1057A0004468C5690D4A2A400D6842EA052223F47F
:1057B00000538D6843EA0533094E0A4DA84218BFCD
:1057C000B04204D124F480444D6944EA8514446015
:1057D000C2614A680264036270BC7047FF8CFFFEBE
:1057E000000001400004014010B4846824F47F44A8
:1057F00042EA03230B43234383605DF8044B704765
:1058000090F83C30012B7DD010B50446012380F880
:105810003C30022380F83D30026890683A4B0340E8
:1058200093600B68402B59D010D9702B3ED01FD8F5
:10583000502B49D0602B32D1CA6849682068FFF7E5
:105840005FFD60212068FFF76FFD28E0102B4FD02F
:1058500008D9202B51D0302B21D130212068FFF7DF
:1058600063FD1CE0DBB900212068FFF75DFD16E059
:10587000B3F5805F0ED0B3F5005F10D1CB684A68F6
:1058800089682068FFF7B0FF2268936843F480437B
:10589000936004E0226891681C4B0B4093600123E5
:1058A00084F83D30002084F83C0010BDCB684A6885
:1058B00089682068FFF798FF22689168144B0B40B5
:1058C00043F077039360EAE7CA6849682068FFF706
:1058D00004FD50212068FFF727FDE0E7CA6849680A
:1058E0002068FFF7FAFC40212068FFF71DFDD6E78E
:1058F00010212068FFF718FDD1E720212068FFF76D
:1059000013FDCCE7022070478800FEFFF8FFFEFF82
:1059100088FFFEFF10B4012303FA01F4036A23EAAF
:1059200004030362036A8A40134303625DF8044B75
:105930007047000010B5044601220068FFF7EAFF37
:1059400023680849084A934218BF8B4203D15A6C16
:1059500042F400425A642268136843F00103136062
:10596000002010BD000001400004014010B50446B5
:1059700000220068FFF7CEFF23681449144A9342BF
:1059800018BF8B420DD1196A41F21112114208D190
:10599000196A40F24442114203D15A6C22F4004287
:1059A0005A642368196A41F21112114208D1196A26
:1059B00040F24442114203D11A6822F001021A60F7
:1059C000012384F83D30002010BD00BF00000140DD
:1059D0000004014070B4036A23F480330362036A55
:1059E0004268446D0D4D25400C682C4323F4003370
:1059F0008D6843EA05430A4E0A4DA84218BFB042DB
:105A000004D122F480324D6942EA052242604465A5
:105A10004A688265036270BC704700BF8FFFFEFF5B
:105A2000000001400004014070B4036A23F48013B5
:105A30000362036A4468456D0D4A2A400D6842EAD4
:105A4000052223F400138D6843EA0553094E0A4DDD
:105A5000A84218BFB04204D124F480244D6944EA1E
:105A60008524446042654A68C265036270BC704721
:105A7000FF8FFFFE000001400004014090F83C3021
:105A8000012B21D070B4012380F83C3003685A68A0
:105A90009D680E4E0E4CA34218BFB34203D122F4B0
:105AA00070024C68224322F070020C68224325F0F9
:105AB0008004896821435A6003689960002380F854
:105AC0003C30184670BC704702207047000001400F
:105AD000000401407047704738B590F83C30012B06
